:100000000C94110D0C94370D0C94370D0C94370D86
:100010000C94370D0C94370D0C94370D0C94370D50
:100020000C94370D0C94370D0C94DF670C94370D3E
:100030000C94370D0C94370D0C94370D0C94370D30
:100040000C94370D0C94370D0C94370D0C94370D20
:100050000C94370D0C94370D0C94370D0C94370D10
:100060000C94370D0C94370D0C94370D0C94370D00
:100070000C94370D0C94370D0C94370D0C94370DF0
:100080000C94370D0C94370D0C94FF670C94F345CA
:100090000C94370D0C94370D0C94370D0C94370DD0
:1000A0000C94370D0C94370D0C94370D0C94370DC0
:1000B0000C94370D0C94370D0C94370D0C94136879
:1000C0000C94370D0C941D680C9427680C94E14334
:1000D0000C94370D0C94370D0C94370D0C94370D90
:1000E0000C94370D0C94370D0C94B75F0C94370DAE
:1000F0000C94370D0C94370D0C94370D0C94370D70
:100100000C94370D0C94370D0C94370D0C94370D5F
:100110000C943B680C941A460C94370D0C94370DD4
:100120000C94370D0C94370D0C94370D0C94370D3F
:100130000C94370D0C94AB430C94370D0C944C4637
:100140000C947D680C9409680C94DA440C94370D77
:100150000C94370D0C9431680C9422440C94370D98
:100160000C94370D0C94370D0C94370D0C94370DFF
:100170000C94370D0C94370D0C94370D0C94370DEF
:100180000C94370D0C94370D0C94370D0C94370DDF
:100190000C94370D0C94370D0C94370D0C94370DCF
:1001A0000C94370D0C94370D0C94370D0C94370DBF
:1001B0000C94370D0C94370D0C94370D0C94370DAF
:1001C0000C94370D0C94370D0C94370D0C94370D9F
:1001D0000C94370D0C94370D0C94370D0C94370D8F
:1001E0000C94370D0C94370D0C94370D0C94370D7F
:1001F0000C94370D0C94313F0C94370D6364696E89
:100200006F70737578585B00008040C020A060E07C
:10021000109050D030B070F0088848C828A868E81E
:10022000189858D838B878F8048444C424A464E4EE
:10023000149454D434B474F40C8C4CCC2CAC6CECBE
:100240001C9C5CDC3CBC7CFC028242C222A262E2BE
:10025000129252D232B272F20A8A4ACA2AAA6AEABE
:100260001A9A5ADA3ABA7AFA068646C626A666E68E
:10027000169656D636B676F60E8E4ECE2EAE6EEE5E
:100280001E9E5EDE3EBE7EFE018141C121A161E176
:10029000119151D131B171F1098949C929A969E98E
:1002A000199959D939B979F9058545C525A565E55E
:1002B000159555D535B575F50D8D4DCD2DAD6DED2E
:1002C0001D9D5DDD3DBD7DFD038343C323A363E32E
:1002D000139353D333B373F30B8B4BCB2BAB6BEB2E
:1002E0001B9B5BDB3BBB7BFB078747C727A767E7FE
:1002F000179757D737B777F70F8F4FCF2FAF6FEFCE
:100300001F9F5FDF3FBF7FFF010000010001010071
:1003100000010100010000010001010001000001D5
:1003200001000001000101000001010001000001C5
:1003300001000001000101000100000100010100B5
:1003400000010100010000010001010001000001A5
:100350000100000100010100010000010001010095
:100360000001010001000001010000010001010085
:100370000001010001000001000101000100000175
:100380000100000100010100000101000100000165
:100390000100000100010100010000010001010055
:1003A0000001010001000001010000010001010045
:1003B0000001010001000001000101000100000135
:1003C0000100000100010100010000010001010025
:1003D0000001010001000001000101000100000115
:1003E0000100000100010100000101000100000105
:1003F00001000001000101000100000100010100F5
:10040000000101000100000153414B3A0900554928
:10041000443A0900415451413A09005468657265F3
:10042000206973206174206C65617374206F6E6540
:10043000206D6F726520636172642074797065202D
:1004400063616E6469646174652C206275742074E4
:100450006865726520776173206E6F7420656E6FBA
:10046000756768207465726D696E616C206275666F
:100470006665722073706163652E0D0A00040001C9
:100480000901000000000000000000000000000062
:10049000000000004E585000000000000000000066
:1004A000000000004D4946415245204D696E6900EB
:1004B000000000000000000000000000000000003C
:1004C000000000000000000000000000000000002C
:1004D000000000000000000000000000000000001C
:1004E00000000000040001080100000000000000FE
:1004F00000000000000000000000004E5850000006
:1005000000000000000000000000004D494641527C
:100510004520436C617373696320316B00000000F8
:1005200000000000000000000000000000000000CB
:1005300000000000000000000000000000000000BB
:10054000000000000000000000000002000118018F
:10055000000000000000000000000000000000009B
:1005600000004E5850000000000000000000000095
:1005700000004D494641524520436C6173736963E5
:1005800020346B00000000000000000000000000AC
:10059000000000000000000000000000000000005B
:1005A000000000000000000000000000000000004B
:1005B00000004400010001000000000000000000F5
:1005C0000000000000000000004E58500000000035
:1005D0000000000000000000004D49464152452047
:1005E000556C7472616C69676874000000000000EB
:1005F00000000000000000000000000000000000FB
:1006000000000000000000000000000000000000EA
:100610000000000000000000004403012001757785
:1006200081028000000000000000000000000500C2
:100630004E585000000000000000000000000000C4
:100640004D49464152452044455346697265000074
:10065000000000000000000000000000000000009A
:10066000000000000000000000000000000000008A
:10067000000000000000000000000000000000007A
:100680004403012001757781028000000000000012
:10069000000000000005004E58500000000000005F
:1006A000000000000000004D4946415245204445ED
:1006B0005346697265204556310000000000000075
:1006C000000000000000000000000000000000002A
:1006D000000000000000000000000000000000001A
:1006E0000000000000000004030128013877B14A2F
:1006F000434F50333100000000000000090149421F
:100700004D000000000000000000000000004A430F
:100710004F503331000000000000000000000000D6
:1007200000000000000000000000000000000000C9
:1007300000000000000000000000000000000000B9
:100740000000000000000000000000000000480061
:100750000120017877B1024A434F5076323431009C
:100760000000000C0149424D0000000000000000A4
:1007700000000000004A434F5033312076322E34BF
:100780002E3100000000000000000000000000000A
:100790000000000000000000000000000000000059
:1007A0000000000000000000000000000000000049
:1007B000000000000048000120013833B14A434FD7
:1007C000503431563232000000000C0149424D00D5
:1007D0000000000000000000000000004A434F50ED
:1007E00034312076322E320000000000000000007C
:1007F00000000000000000000000000000000000F9
:1008000000000000000000000000000000000000E8
:1008100000000000000000000000000004000128AB
:10082000013833B14A434F5034315632333100002E
:10083000000D0149424D00000000000000000000D2
:100840000000004A434F5034312076322E332E318F
:100850000000000000000000000000000000000098
:100860000000000000000000000000000000000088
:100870000000000000000000000000000000000078
:1008800000000004000188010000000000000000DA
:1008900000000000000000000000496E66696E65FF
:1008A0006F6E00000000000000004D4946415245B7
:1008B00020436C617373696320316B00000000009A
:1008C0000000000000000000000000000000000028
:1008D0000000000000000000000000000000000018
:1008E000000000000000000000000200019801006C
:1008F00000000000000000000000000000000000F8
:100900000047656D706C757300000000000000000A
:10091000004D50434F530000000000000000000055
:1009200000000000000000000000000000000000C7
:1009300000000000000000000000000000000000B7
:1009400000000000000000000000000000000000A7
:1009500000000C010000000000000000000000008A
:100960000000000000000000496E6E6F7669736938
:100970006F6E2052265400004A6577656C000000B7
:100980000000000000000000000000000000000067
:100990000000000000000000000000000000000057
:1009A0000000000000000000000000000000000047
:1009B00000000000000000000200013801000000FB
:1009C0000000000000000000000000000000004ED9
:1009D0006F6B696100000000000000000000004D26
:1009E000494641524520436C617373696320346BFF
:1009F000202D20656D756C61746564202836323158
:100A00003220436C617373696329000000000000A9
:100A100000000000000000000000000000000008CE
:100A2000000138010000000000000000000000008C
:100A30000000000000004E6F6B69610000000000C4
:100A40000000000000004D494641524520436C61C2
:100A50007373696320346B202D20656D756C617430
:100A60006564202836313331204E4643290000008A
:100A70000000000000000000000000000000000076
:100A80000000000000000D0A0009023E0002010003
:100A9000C032090400000102020100052400100117
:100AA000042402060524060001070582030800FF4E
:100AB00009040100020A00000007050402100005F5
:100AC000070583021000051201100102000008D082
:100AD00016B20401000102DC011E0343006800613C
:100AE000006D0065006C0065006F006E002D004D0C
:100AF0000069006E00690000002A034B006100736A
:100B0000007000650072002000260020004F007376
:100B100000770061006C006400200047006D0062F7
:100B2000004800000004030904004E4F4E45000039
:100B300000000000000000000000000000000000B5
:100B400000000000000000000000015549445F5211
:100B5000414E444F4D000000000000000000000026
:100B60000000000000000000000000025549445F42
:100B70004C4546545F494E4352454D454E54000046
:100B80000000000000000000000000000355494480
:100B90005F52494748545F494E4352454D454E5474
:100BA00000000000000000000000000000045549A3
:100BB000445F4C4546545F44454352454D454E5471
:100BC00000000000000000000000000000000555CB
:100BD00049445F52494748545F44454352454D4557
:100BE0004E5400000000000000000000000000065D
:100BF0004359434C455F53455454494E47530000B5
:100C000000000000000000000000000000000000E4
:100C1000074359434C455F53455454494E47535F2E
:100C200044454300000000000000000000000000F8
:100C3000000853544F52455F4D454D0000000000E1
:100C400000000000000000000000000000000000A4
:100C5000000009524543414C4C5F4D454D0000009A
:100C60000000000000000000000000000000000084
:100C70000000000A544F47474C455F4649454C44E5
:100C80000000000000000000000000000000000064
:100C9000000000000B53544F52455F4C4F4700007B
:100CA0000000000000000000000000000000000044
:100CB00000000000000C434C4541525F4C4F470080
:100CC0000000000000000000000000000000000024
:100CD0000000000000000D434C4F4E450000000096
:100CE0000000000000000000000000000000000004
:100CF000000000000000000E434C4F4E455F4D4683
:100D0000550000000000000000000000000000008E
:100D10000000000000000000B455BA55B955B855A0
:100D2000B755B655B555B155AF55B055A755A6559C
:100D3000AB55AA550000000100CC1F8B1E7821B1D5
:100D40001A9A1A931AB555F13937238F276F1A6CEF
:100D50001A791A741A4000070001CC1F8B1E7821E3
:100D60008323941A931AB555F13937238F276F1AB5
:100D70006C1A791A741AC000070001CC1F8B1E78F8
:100D8000217F239A1A931AB555F13937238F276F8C
:100D90001A6C1A791A741A5000070001CC1F8B1EA6
:100DA00078217B239A1A931AB555F13937238F2767
:100DB0006F1A6C1A791A741AA400070001CC1F8BE1
:100DC0001E78215D1A371A361AB5554D299D229A7B
:100DD00026241A211A2E1A291A4001040001CC1FB8
:100DE0008B1E7821E322371A361AB5554D299D22DC
:100DF0009A26241A211A2E1A291A0004040001CC5A
:100E00001F8B1E78214C1A371A361AB5554D299D5D
:100E1000229A26241A211A2E1A291A0004070001E0
:100E2000CC1F8B1E7821BB22371A361AB5554D2997
:100E30009D229A26241A211A2E1A291A001004001B
:100E400001CC1F8B1E78213B1A371A361AB5554D27
:100E5000299D229A26241A211A2E1A291A001007CF
:100E60000001CC1F8B1E78216227371A361AB55520
:100E70004D299D229A26241A211A2E1A291A000475
:100E8000040001CC1F8B1E78213727371A361AB57C
:100E9000554D299D229A26241A211A2E1A291A0004
:100EA00010040001DD1ABC1AC52058135213511347
:100EB00050130F28AF55B055A755A655AB55AA5599
:100EC0000000000100F81D5F47564F8C1385138406
:100ED0001383132E4AAF55B055A755A655AB55AA47
:100EE000550000000000CC1F8B1E782179224C1386
:100EF0004B13B5552D244A23CF27000000000000D6
:100F000000001C02070001B012400D75203F0D3E8D
:100F10000D3D0D3C0D390DAF55B0550000000000E2
:100F20000000000000000100392E342E3000313561
:100F30003131313500626231336430380032323A57
:100F400030303A3430003233303231390043686166
:100F50006D656C656F6E4D696E69205265764720D0
:100F6000636F6D70696C6564206174202553202562
:100F70005328255329207573696E67204C554641C7
:100F80002025532077697468204156522D474343EA
:100F90002025532E00004E4F4E450000000000005B
:100FA0000000000000000000000000000000000041
:100FB000000000000000014D465F554C5452414C6A
:100FC00049474854000000000000000000000000F5
:100FD00000000000000000034D465F554C54524194
:100FE0004C494748545F4556315F38304200000055
:100FF0000000000000000000044D465F554C5452B4
:10100000414C494748545F4556315F3136344200C0
:10101000000000000000000000024D465F554C54E7
:1010200052414C494748545F430000000000000013
:1010300000000000000000000000054D465F434C2A
:1010400041535349435F4D494E495F3442000000CC
:101050000000000000000000000000064D465F4355
:101060004C41535349435F314B00000000000000E6
:10107000000000000000000000000000074D465F77
:10108000434C41535349435F314B5F3742000000AB
:1010900000000000000000000000000000084D46B5
:1010A0005F434C41535349435F344B000000000001
:1010B0000000000000000000000000000000094DDA
:1010C000465F434C41535349435F344B5F374200C3
:1010D0000000000000000000000000000000000A06
:1010E0004D465F444554454354494F4E5F314B0094
:1010F00000000000000000000000000000000000F0
:101100000B4D465F444554454354494F4E5F344B65
:1011100000000000000000000000000000000000CF
:10112000000C49534F3134343433415F534E4946F8
:101130004600000000000000000000000000000069
:1011400000000D49534F3134343433415F5245412F
:1011500044455200000000000000000000000000B4
:101160000000000E4E5441473231350000000000AF
:10117000000000000000000000000000000000006F
:10118000000000000F49534F31353639335F534E5D
:10119000494646000000000000000000000000007A
:1011A00000000000004E4F205549442E0052414E91
:1011B000444F4D0025632C256300257500257500DF
:1011C000004E4F4E450000000000000000000000EF
:1011D000000000000000000000000000000000000F
:1011E0000001504F574552454400000000000000E8
:1011F00000000000000000000000000000000000EF
:101200000000025445524D494E414C5F434F4E4EF3
:1012100000000000000000000000000000000000CE
:10122000000000035445524D494E414C5F52585402
:101230005800000000000000000000000000000056
:10124000000000000453455454494E475F43484151
:101250004E474500000000000000000000000000B4
:101260000000000000054D454D4F52595F53544F4B
:101270005245440000000000000000000000000093
:10128000000000000000064D454D4F52595F434895
:10129000414E4745440000000000000000000000EF
:1012A0000000000000000008434F4445435F5258CF
:1012B000000000000000000000000000000000002E
:1012C000000000000000000009434F4445435F5404
:1012D00058000000000000000000000000000000B6
:1012E000000000000000000000074649454C445F34
:1012F00044455445435445440000000000000000AC
:10130000000000000000000000000A4C4F474D455F
:101310004D5F46554C4C00000000000000000000EE
:101320000000000000000000000000004F464600E2
:1013300000000000000000000000000000000000AD
:10134000000000000000000000000000014D454DBD
:101350004F52590000000000000000000000000093
:1013600000000000000000000000000000024C49E6
:1013700056450000000000000000000000000000D2
:1013800000000000000000000000000000002575C3
:10139000202866726F6D2077686963682025752044
:1013A0006E6F6E2D766F6C6174696C6529002535E2
:1013B00075206D560025342E3458002575206D7328
:1013C000002535640030203D206E6F2074696D6506
:1013D0006F75740D0A312D363030203D203130309C
:1013E000206D73202D203630303030206D73207406
:1013F000696D656F75740025750025356400416E53
:101400007920696E74656765722066726F6D203031
:1014100020746F2025752E205265666572656E6397
:101420006520766F6C746167652077696C6C2062EB
:10143000652028564343202A205448524553484F9C
:101440004C44202F203430393529206D562E00256C
:10145000632C25630025632C25630025632C2563FD
:101460000025632C256300643130303A4F4B000077
:10147000000000000000000000000000000000006C
:101480000000000000000000653130313A4F4B2071
:1014900057495448205445585400000000000000AB
:1014A0000000000000000000006E3131303A57416A
:1014B0004954494E4720464F5220584D4F44454DC0
:1014C00000000000000000000000C83230303A5533
:1014D0004E4B4E4F574E20434F4D4D414E44000012
:1014E0000000000000000000000000C93230313A66
:1014F000494E56414C494420434F4D4D414E4420A6
:10150000555341474500000000000000CA32303208
:101510003A494E56414C494420504152414D455460
:101520004552000000000000000000000078313249
:10153000303A46414C5345000000000000000000D6
:1015400000000000000000000000000000007931F1
:1015500032313A54525545000000000000000000AE
:10156000000000000000000000000000000000CBB0
:101570003230333A54494D454F5554000000000075
:10158000000000000000000000000000000000005B
:101590000D0A000D0A0056455253494F4E000000F7
:1015A000000000000000000000000000D657434F7C
:1015B0004E46494700000000000000000000000007
:1015C0000000CA64295B5549440000000000000087
:1015D00000000000000000000000845BF76241543E
:1015E0005141000000000000000000000000000069
:1015F0000000C359546353414B0000000000000039
:10160000000000000000000000008C5535635245CA
:1016100041444F4E4C590000000000000000000003
:101620000000A957965355504C4F4144000000000C
:101630000000000000007853000000000000444F4C
:10164000574E4C4F41440000000000000000F75C82
:101650000000000000005245534554000000000007
:10166000000000000000765B000000000000555004
:101670004752414445000000000000000000685B44
:101680000000000000004D454D53495A4500000040
:1016900000000000000000000000000091575549C4
:1016A0004453495A450000000000000000000000BB
:1016B000000000007B5752425554544F4E0000002A
:1016C000000000000000000000002461625B524244
:1016D0005554544F4E5F4C4F4E47000000000000E1
:1016E00000000A615C5B4C425554544F4E000000B0
:1016F00000000000000000000000F060565B4C425B
:101700005554544F4E5F4C4F4E47000000000000B0
:101710000000D660505B4C4544475245454E0000A2
:1017200000000000000000000000BC60365B4C457B
:10173000445245440000000000000000000000008A
:101740000000A260435B4C4F474D4F4445000000F2
:101750000000000000000000000078601C5B4C4F9F
:10176000474D454D00000000000000000000000053
:101770000000000052574C4F47444F574E4C4F41CA
:10178000440000000000F25C0000000000004C4F2C
:101790004753544F52450000000000000000A76668
:1017A0000000000000004C4F47434C4541520000F0
:1017B000000000000000BC6600000000000053456F
:1017C0005454494E47000000000000000000000093
:1017D00000007B65EB52434C454152000000000085
:1017E000000000000000A95C00000000000053544D
:1017F0004F52450000000000000000000000D361CF
:10180000000000000000524543414C4C0000000025
:10181000000000000000A65C00000000000043483B
:10182000415247494E470000000000000000000000
:1018300000000000E55248454C5000000000000048
:10184000000000000000EC550000000000005253B2
:1018500053490000000000000000000000000000EC
:101860000000000038575359535449434B000000BF
:101870000000000000000000000000001C5753455D
:101880004E445F524157000000000000000000007D
:10189000F5590000000053454E44000000000000D0
:1018A0000000000000000000945A000000004745BE
:1018B0005455494400000000000000000000B558E5
:1018C00000000000000044554D505F4D465500009B
:1018D000000000000000D258000000000000434C4F
:1018E0004F4E455F4D465500000000000000036468
:1018F0000000000000004944454E5449465900008C
:10190000000000000000985800000000000054494A
:101910004D454F555400000000000000000000003D
:1019200000007059FC565448524553484F4C4400EF
:10193000000000000000000000001B59E256415565
:10194000544F43414C4942524154450000006C58A9
:101950000000000000004649454C44000000000023
:1019600000000000000000000000EF58D552434C7A
:101970004F4E450000000000000000000000ED6335
:101980000000000000005549444D4F444500000050
:1019900000000000000000000000AE56C15253419C
:1019A0004B4D4F44450000000000000000000000C7
:1019B0000000A963B1524C45444D4F44450000001E
:1019C00000000000000000000000FC57C952444520
:1019D00054454354494F4E000000000000000000F1
:1019E00000001F44EB394241554452415445000028
:1019F0000000000000000000000000004E58000041
:101A000000000000000000000000000000000000D6
:101A10000000000000000D0A000D0A000D0A000D74
:101A20000A0011241FBECFEFCDBFDFE3DEBF00E011
:101A30000CBF18BE19BE1ABE1BBE2DE3A2ECB4E249
:101A400001C01D92A132B207E1F714E2A0E0B0E2BA
:101A5000E0E0F0EF00E00BBF02C007900D92A23C67
:101A6000B107D9F71BBE0E94016A0C94FE770C9453
:101A7000F66790E080E00895089508950895089528
:101A8000A0E2B6E01A961C921A978DE599E288B901
:101A900099B9EEE5FAE21082118211B810B814B8C3
:101AA00015B813B81092592810925A2812B81092EB
:101AB000582810925728E0E0F9E01082138217822C
:101AC00080E4848781E016968C931092820188E0EE
:101AD0008093220308951F921FB61F9211242F9303
:101AE00028B72F9318BE29B72F9319BE2BB72F9362
:101AF0001BBE3F934F935F936F937F938F939F93FF
:101B0000AF93BF93EF93FF9324B135B14091280673
:101B1000467081E090E011F090E080E0220F331FEA
:101B2000822B932B84B995B943E050E083B18F5F4A
:101B300083B98830C1F413B891B1913009F448C029
:101B4000923009F47EC191110CC084B195B18B37EC
:101B5000910541F581E081B91092592810925A28D7
:101B600012B814B815B88091592890915A28019646
:101B70008093592890935A28FF91EF91BF91AF918C
:101B80009F918F917F916F915F914F913F912F9195
:101B90002BBF2F9129BF2F9128BF2F911F901FBEC0
:101BA0001F90189584B195B18E37910539F482E074
:101BB00081B91092592810925A28D3CF81E080938E
:101BC0005E2A80935F2A1092000910920709C9CFFC
:101BD00024B135B12F3D310509F0F0C090935E2A54
:101BE0002091582820935D2A109200091092030931
:101BF0001092070920E420930C092BE538E228B95C
:101C000039B91092582820915D2920FF2FC0E8B1E2
:101C1000F9B19F012F5F3F4F28B939B98AEB808313
:101C2000E8B1F9B19F012F5F3F4F28B939B98AEA6E
:101C30008083E8B1F9B19F012F5F3F4F28B939B9CF
:101C40008083E8B1F9B19F012F5F3F4F28B939B9BF
:101C50008DEA8083809158288C5F809358288091EA
:101C6000582880935B2990935F2A7BCF10920402BF
:101C70002091010228602093010220E820930302B2
:101C800020E1209329029093280228E32093310237
:101C90009093300226E02093000920EA30E0209360
:101CA00026093093270923E0209306098093090928
:101CB0003AE03093400940936809509369092093B2
:101CC0004709809349099093000A9AE89093030A80
:101CD00028EF33E02093260A3093270A2FEF33E0D2
:101CE0002093360A3093370A20E430E02093280A04
:101CF0003093290A28EF31E020932C0A30932D0AE3
:101D000020E032E020933C0A30933D0A1092060A0C
:101D10001092070A8093090A80911402909115028B
:101D20008E5B9109B0E0A0E02FE740911402509142
:101D300015024E5B5109840F951FA11DB11D215045
:101D4000A1F737E0B695A795979587953A95D1F77E
:101D500086B997B980E48093030226B137B186B182
:101D600097B143E0969587954A95E1F7820F931FC7
:101D700080933803909339032091380330913903CD
:101D800066B177B140913803509139033F7081E0DB
:101D900090E02617370710F090E080E0919581954C
:101DA0009109842B952B80933803909339038CE30E
:101DB000809382038DEF80938003D3CE24B135B11D
:101DC000822F80952F3B41F482B18F5F82B980B121
:101DD0008695869580B90AC08031E1F482B18F5F23
:101DE00082B980B18695869580B9069A82B1843091
:101DF00009F0B7CE12B8E8B1F9B180B1808388B1EB
:101E000099B1019688B999B9809158288F5F8093CC
:101E10005828A7CE843049F482B18F5F82B980B14F
:101E20008695869580B9079AE1CF8130F9F682B11F
:101E30008F5F82B980B18695869580B980B1806CBC
:101E4000C9CF24B135B12F3D310509F086C091E0ED
:101E500090935E2A2091582820935D2A10920009C1
:101E6000109203091092070920E420930C092BE536
:101E700038E228B939B91092582820915D2920FDFF
:101E8000C6CE109204022091010228602093010224
:101E900020E82093030220E1209329029093280256
:101EA00028E3209331029093300226E0209300092A
:101EB00020EA30E0209326093093270923E020937D
:101EC0000609809309093AE0309340094093680974
:101ED0005093690920934709809349099093000A18
:101EE0009AE89093030A28EF33E02093260A309370
:101EF000270A2FEF33E02093360A3093370A20E485
:101F000030E02093280A3093290A28EF31E020930B
:101F10002C0A30932D0A20E032E020933C0A3093C3
:101F20003D0A1092060A1092070A8093090A8091CE
:101F30001402909115028E5B9109B0E0A0E02FE7AA
:101F400040911402509115024E5B5109840F951F68
:101F5000A11DB11D2150A1F7F4CE80915928909177
:101F60005A289695879544B155B1242F20954F3B1B
:101F700051F4845080B982B18F5F82B982B18130CF
:101F800009F0EFCD37CF203111F48350F3CF243057
:101F900011F48250EFCF213089F78150EBCF1F929F
:101FA0001FB61F9211248F9388B78F9318BE8BB7DB
:101FB0008F931BBEEF93FF93E0E0F9E080E484870A
:101FC00080E3878310922A06FF91EF918F918BBF58
:101FD0008F9188BF8F911F901FBE1F9018951F92E1
:101FE0001FB61F9211242F9328B72F9318BE3F932B
:101FF0004F935F936F937F938F939F9320911202E0
:1020000030911302C9018E5B91098093380390933C
:10201000390360913803709139034091380350912E
:10202000390381E090E02617370710F490E080E054
:1020300091958195910984239523809338039093FA
:102040003903109247099F918F917F916F915F9112
:102050004F913F912F9128BF2F911F901FBE1F902E
:1020600018951F921FB61F9211242F9328B72F93F4
:1020700018BE3F934F935F936F937F938F939F937C
:1020800080916009909161090F9708F046C0109205
:10209000070A26B137B186B197B143E09695879587
:1020A0004A95E1F7820F931F809338039093390389
:1020B000209138033091390366B177B140913803EC
:1020C000509139033F7081E090E02617370710F0F8
:1020D00090E080E0919581959109842B952B8093D8
:1020E0003803909339038091800380638093800349
:1020F00083E08093470910926009109261099F91D3
:102100008F917F916F915F914F913F912F9128BF58
:102110002F911F901FBE1F90189580E38093070A90
:1021200083E08093060A1092030A27E030E024B986
:1021300035B997E093B981B9DECF1F921FB61F92D0
:1021400011242F9328B72F9318BE3F934F935F937B
:102150006F937F938F939F9383E08093070A8DEC17
:102160008093800326B137B186B197B19695879554
:1021700096958795820F931F809338039093390328
:10218000209138033091390366B177B1409138031B
:10219000509139033F7081E090E02617370710F027
:1021A00090E080E0919581959109842B952B809307
:1021B0003803909339039F918F917F916F915F9135
:1021C0004F913F912F9128BF2F911F901FBE1F90BD
:1021D0001895CF93DF93E0E0F2E083E084831182EF
:1021E0001382C0E0D9E01E82A0E4B9E017961C92E9
:1021F0001797E0E0FAE01682178218821C9210828C
:10220000E0E8F3E08CE3828388E08083DF91CF9184
:1022100008951F920F920FB60F92112408B60F92D5
:1022200018BE09B60F9219BE0BB60F921BBE2F93A4
:102230003F934F935F936F937F938F939F93AF934E
:10224000BF93EF93FF9384B195B140916009509192
:102250006109880F991F21E030E04530510510F4E5
:1022600030E020E0822B932B84B995B983B18F5F46
:1022700083B9109260091092610983B1883039F4F2
:1022800013B891B19330D1F0943009F472C0FF913A
:10229000EF91BF91AF919F918F917F916F915F91DE
:1022A0004F913F912F910F900BBE0F9009BE0F9051
:1022B00008BE0F900FBE0F901F90189584B195B176
:1022C0004D9729F41092060984E081B9E0CF26B138
:1022D00037B186B197B143E0969587954A95E1F776
:1022E000820F931F80933803909339032091380312
:1022F0003091390366B177B1409138035091390379
:102300003F7081E090E02617370710F090E080E002
:10231000919581959109842B952B80933803909307
:1023200039038DEF8093800383E0809347091092F7
:10233000060A1092070A88E0809349098093090AE7
:1023400088EF93E08093260A9093270A8FEF93E01B
:102350008093360A9093370A88EF91E080932C0A95
:1023600090932D0A80E092E080933C0A90933D0A7E
:102370008ECF95B1983B49F481E080935F2A80919C
:10238000582880935B2925DF82CF95B19370E8B1FF
:10239000F9B19330A1F195B1937089F195B19C7029
:1023A0009C3069F195B19C7051F195B19073903367
:1023B00031F195B1907319F195B1907C903CF9F0A1
:1023C00095B1907CE1F094B193709330C1F094B1E9
:1023D0009370A9F094B19C709C3089F094B19C707A
:1023E00071F094B19073903351F094B1907339F0CF
:1023F00094B1907C903C19F094B1907C21F5CF0180
:10240000019688B999B98BE08083E8B1F9B1CF0121
:10241000019688B999B98DEA8083E8B1F9B1CF0105
:10242000019688B999B98AED8083E8B1F9B1CF01F5
:10243000019688B999B98AE78083809158288C5F82
:102440008093582899CF95B19370913009F080E02E
:1024500080B985B18C7090E0843009F494E080B14B
:10246000892B80B985B1807390E0803109F492E0C6
:1024700080B1892B80B995B120B1907C81E09034F6
:1024800009F080E0822B80B984B1837090E08130C4
:1024900009F490E880B1892B80B984B18C7090E008
:1024A000843009F490E480B1892B80B984B18073C1
:1024B00090E0803109F490E280B1892B80B984B139
:1024C000807C90E0803409F490E180B1892B80B960
:1024D00080B1808388B199B1019688B999B980910A
:1024E00058288F5F8093582880915828D0CE8DE54A
:1024F00099E288B999B9EEE5FAE21082118211B831
:1025000010B814B815B813B81092592810925A2858
:1025100012B81092582810925D2A10925B291092DE
:102520005728A0E2B6E091E015969C931597E0E05D
:10253000F9E082E0808328E8238310A211A22FE72C
:1025400030E026A337A321E330E024A735A7178284
:1025500020E424871C969C931C971A968C930895CC
:10256000CF93DF93E0E4F6E0128A84E08283C0E850
:10257000D1E082E68E83A0E2B6E081E016968C93ED
:10258000169711968C93119796E012969C9312973A
:1025900051968C93519732E052963C9352971A96EB
:1025A0001C921A971B961C921B979FE019969C935E
:1025B00099E598839AE5998390E491839683A0EBBB
:1025C000B0E012962C911297207F12962C931297BE
:1025D00012962C911297226012962C9320E321835D
:1025E0002683908B8683358383E08183E0E0F8E067
:1025F00083E1818321E030E026A337A320A731A720
:10260000E0E8F8E014868083E0E2F3E013821182D0
:1026100088E0828391E19083A0910026B091012609
:102620001A962D913C91208F318FA0E8B3E09CE366
:1026300012969C9312978C9313969C9313971196D2
:102640008C938BE69DE08093D2259093D3258FECDD
:102650009FE08093D0259093D1258FEE9FE08093CB
:10266000CE259093CF2581E390E18093CC25909364
:10267000CD2589E091E18093CA259093CB258DE902
:1026800090E180931F3D9093203D80E18A831282E8
:10269000DF91CF912CCF089581E080935628089543
:1026A0000895089510924D281092C9250895FACFE3
:1026B00081E080934D28E0910026F09101268285EB
:1026C0009385809304209093052008959C0183E6D0
:1026D00093E6615008F40895F9012191282730E12B
:1026E000239FA00111242427892F9927322F329567
:1026F0003F708327922B48E0249F9001112482276A
:1027000093279F01E6CF089508951092C524109253
:10271000C8251092D42708951092C5240895EF92E9
:10272000FF920F931F93CF93DF939C01CB016730F0
:10273000710559F069E070E00E94307090E080E02F
:1027400048E050E06817790741F481E0DF91CF91CC
:102750001F910F91FF90EF900895DC01E3E0B69593
:10276000A795EA95E1F7A80FB91FEC01C770DD271F
:10277000F901EA0FFB1FE0810E2F10E00C2E02C0C2
:10278000159507950A94E2F71196A20FB31FE02F53
:10279000209751F0FC91EF2F7A01EC1AFD0A01C04D
:1027A000EE0FEA94EAF7E02BF0E0E85FFC4FE491EB
:1027B000AC91B0E002C0B595A795CA95E2F7AE27F7
:1027C000A0FD02C00196BECF80E0C0CFCF92DF92C5
:1027D000EF92FF920F931F93CF93DF93FC01CB01F6
:1027E0006830710590F069E070E00E94307090E010
:1027F00080E048E0C42ED12C6817790779F4CB012A
:1028000023E0880F991F2A95E1F7DF91CF911F915F
:102810000F91FF90EF90DF90CF9008957C0133E00F
:10282000F694E7943A95E1F7E80EF91EEC01C770CB
:10283000DD27EE0EFF1ED7012C91422F50E00C2E0B
:1028400002C0559547950A94E2F78F01080F191FAA
:10285000D8014C93209771F0D70111963C91232F0A
:10286000D601AC1BBD0B01C0220FAA95EAF7242BA1
:10287000D8012C930196C0CFCF92DF92EF92FF92B6
:10288000FC0180819181A281B3819D0143E0369555
:1028900027954A95E1F72A273B276901D694C794E3
:1028A000D694C7947BE0B695A795979587957A952A
:1028B000D1F7C226D326F12CE12C25E1CC0CDD1C6E
:1028C000EE1CFF1C2A95D1F78C299D29AE29BF2922
:1028D000AD0133E0569547953A95E1F74A275B27D6
:1028E0009A0136952795369527956C017D01ABE0C9
:1028F000F694E794D794C794AA95D1F7242735275F
:10290000C901B0E0A0E025E1880F991FAA1FBB1FF5
:102910002A95D1F78C299D29AE29BF29AD0133E035
:10292000569547953A95E1F74A275B279A013695E0
:102930002795369527956C017D01AAE0F694E794DA
:10294000D794C794AA95D1F724273527C901B0E0B9
:10295000A0E026E1880F991FAA1FBB1F2A95D1F777
:102960008C299D29AE29BF29603449F08083918349
:10297000A283B383FF90EF90DF90CF90089560E241
:1029800084CFBF92CF92DF92EF92FF920F931F936B
:10299000CF93DF933091F5262091F626A091F7266C
:1029A000B091F8267091F9265091FA26EB2FF0E0BD
:1029B000E654FF4DC72FD0E0C654DE4DE08148817C
:1029C000E42BC52FD0E0C654DD4D4881E42BF0E068
:1029D000E656FF4D1081EC0140E06150B0F43093B9
:1029E000F5262093F626A093F726B093F826709349
:1029F000F9265093FA26DF91CF911F910F91FF9006
:102A0000EF90DF90CF90BF90089516954795822F55
:102A10008071932F917E892B972F9377E52FEA73FF
:102A20009E2789279A2F9072EB2FE4799E2B982767
:102A3000892F82958927982F969596958927982F83
:102A4000969589279A2F8695979527953795469538
:102A5000F72FF0718B2F817EF82B852F8072F8274E
:102A6000832F8479F827822F8377F827892F8A7319
:102A70008F27F82FF295F8278F2F86958695F827C0
:102A80008F2F8695F827EB2F852FF69587957795CD
:102A9000E795A32FB0E0A654BF4D022F10E00654D7
:102AA0001E4DFC91D8015C91F52B092F10E00654C6
:102AB0001D4DD8015C91AF2FA52BB0E0A658BF4D9E
:102AC0005C91452B4695F22FF071532F517EF52BDB
:102AD000572F5377A82FAA735A27F527592F5072CB
:102AE000AE2FA4795A2B5F27F52FF295F5275F2F8C
:102AF00056955695F5275F2F5695F527F695979598
:102B000027953795AE2FB0E0A654BF4D072F10E0A4
:102B100006541E4DFC91D8015C91F52B082F10E056
:102B200006541D4DD8015C91AF2FA52BB0E0A658DF
:102B3000BF4D5C91452B4695F72FF0715E2F517E6E
:102B4000F52B522F5377A92FAA735A27F527582F01
:102B50005072A32FA4795A2B5F27F52FF295F527F2
:102B60005F2F56955695F5275F2F5695F5275F2FC2
:102B7000569587957795E795A32FB0E0A654BF4D5E
:102B8000022F10E006541E4DFC91D8015C91F52BEC
:102B9000092F10E006541D4DD8015C91AF2FA52BD5
:102BA000B0E0A658BF4D5C91452B4695572F537703
:102BB000F82FFA735F27F22FF071A32FA17EFA2B63
:102BC0005F27F92FF072AE2FA479FA2BF5275F2F2C
:102BD00052955F27F52FF695F6955F27F52FF69519
:102BE0005F275695979527953795AE2FB0E0A65459
:102BF000BF4D072F10E006541E4DFC91D8015C918B
:102C0000F52B082F10E006541D4DD8015C91AF2F15
:102C1000A52BB0E0A658BF4D5C91452B4695522F91
:102C20005377F92FFA735F27F72FF071AE2FA17E3C
:102C3000FA2B5F27F82FF072A32FA479FA2BF52730
:102C40005F2F52955F27F52FF695F6955F27F52FA5
:102C5000F6955F27BE2E569587957795B794A32F47
:102C6000B0E0A654BF4D022F10E006541E4DEC916B
:102C7000D8015C91E52B092F10E006541D4DD801B9
:102C80005C91AE2FA52BB0E0A658BF4D5C91452BB3
:102C9000B42FB695522F5071F32FF17E5F2BF72F83
:102CA000F377A82FAA73FA275F27F92FF072AB2DBD
:102CB000A479FA2BF5275F2F52955F27F52FF6950C
:102CC000F6955F27F52FF6955F27569597952795EB
:102CD0003795A92F0B2D10E0F801E654FF4D072F73
:102CE00010E0A80146545E4D0081FA019081092B45
:102CF000E82EF12CA70146545D4DFA019081092B75
:102D000010E006581F4DF80190814B2F492B469536
:102D1000032F10E0F801E654FF4D6F01022F10E081
:102D2000F801E654FE4D7F01F6010081F701908124
:102D3000092BEA2EF12CF701E654FD4D9081092B69
:102D400010E006581F4DF8019081492B922F937780
:102D50005A2F5A7395275B2D517EF72FF0715F2BF9
:102D60009527582F5072F32FF4795F2B5927952F01
:102D700092959527592F569556959527592F5695E3
:102D80009527EB2D969587957795E795BE2F582F2C
:102D9000F0E0E654FF4D872F90E086549E4D108161
:102DA000FC018081182B852F90E086549D4DFC01FD
:102DB0008081E12FE82BF0E0E656FF4D10818991EC
:102DC000E82FF0E0E85FFC4FE4917E01FFE7EF0EB3
:102DD000F11C9E2F9127F7019083E058F109842779
:102DE0008083FBCDFF920F931F93CF93DF93FC0162
:102DF0003091F5262091F6269091F7267091F826CD
:102E00005091F9268091FA26615090F43093F5267E
:102E10002093F6269093F7267093F8265093F92680
:102E20008093FA26DF91CF911F910F91FF90089523
:102E3000452F4377A82FAA734A27A22FA071B32F3B
:102E4000B17EAB2B4A27A92FA072B72FB479AB2B39
:102E5000A4274A2F42954A27A42FA695A6954A272C
:102E6000A42FA6954A274695979527953795A72F7E
:102E7000B0E0A654BF4DC52FD0E0C654DE4DAC9196
:102E80004881A42BC82FD0E0C654DD4D4881A42B27
:102E9000B0E0A658BF4D4C914695A52FA071B72F15
:102EA000B17EAB2BB82FB072AB27B32FB479AB2761
:102EB000B22FB377AB27B92FBA73BA27AB2FA2952E
:102EC000AB27BA2FB695B695AB27BA2FB695AB27D9
:102ED000A695879557957795A32FB0E0A654BF4D3B
:102EE000C22FD0E0C654DE4DAC91B881AB2BC92FB8
:102EF000D0E0C654DD4DB881AB2BB0E0A658BF4D35
:102F0000AC914A2B4695A52FA377B82FBA73AB2760
:102F1000B22FB071C32FC17EBC2BAB27B92FB072BB
:102F2000C72FC479BC2BBA27AB2FA295AB27BA2FDA
:102F3000B695B695AB27BA2FB695AB27A6959795BC
:102F400027953795A72FB0E0A654BF4DC52FD0E0E9
:102F5000C654DE4DAC91B881AB2BC82FD0E0C6541F
:102F6000DD4DB881AB2BB0E0A658BF4DAC914A2BDC
:102F70004695A22FA377B92FBA73AB27B52FB0719F
:102F8000C72FC17EBC2BAB27B82FB072C32FC4791B
:102F9000BC2BBA27AB2FA295AB27BA2FB695B69507
:102FA000AB27BA2FB695AB27A695879557957795FA
:102FB000A32FB0E0A654BF4DC22FD0E0C654DE4DC3
:102FC000AC91B881AB2BC92FD0E0C654DD4DB88190
:102FD000AB2BB0E0A658BF4DAC914A2B4695A52F20
:102FE000A377B82FBA73AB27B22FB071C32FC17EAE
:102FF000BC2BAB27B92FB072C72FC479BC2BBA2713
:10300000AB2FA295AB27BA2FB695B695AB27BA2FA3
:10301000B695AB27A695979527953795A72FB0E03E
:10302000A654BF4DC52FD0E0C654DE4DAC91B8813B
:10303000AB2BC82FD0E0C654DD4DB881AB2BB0E030
:10304000A658BF4DAC914A2B4695A52FA071B72F1E
:10305000B17EAB2BB22FB377C92FCA73BC27AB2776
:10306000B82FB072C32FC479BC2BBA27AB2FA2954F
:10307000AB27BA2FB695B695AB27BA2FB695AB2727
:10308000A695879557957795A32FB0E0A654BF4D89
:10309000C22FD0E0C654DE4DAC91B881AB2BC92F06
:1030A000D0E0C654DD4DB881AB2BB0E0A658BF4D83
:1030B000AC914A2B4695A22FA071B32FB17EAB2BBA
:1030C000B52FB377C82FCA73BC27AB27B92FB072FF
:1030D000C72FC479BC2BBA27AB2FA295AB27BA2F29
:1030E000B695B695AB27BA2FB695AB27A69597950B
:1030F00027953795A72FB0E0A654BF4DC52FD0E038
:10310000C654DE4DAC91B881AB2BC82FD0E0C6546D
:10311000DD4DB881AB2BB0E0A658BF4DAC914A2B2A
:103120004695A72FA17EB52FB071AB2BB22FB377E9
:10313000C92FCA73BC27AB27B82FB072C32FC4796D
:10314000BC2BBA27AB2FA295AB27BA2FB695B69555
:10315000AB27BA2FB695AB27A69587955795779548
:10316000EF01A32FB0E0A654BF4D022F10E006548C
:103170001E4DFC90D8011C91F12A092F10E0065435
:103180001D4DD8011C91AF2DA12BB0E0A658BF4D0D
:10319000AC914A2BA9914A274083FE0135CE0F936B
:1031A0001F93CF93DF93E5EFF6E270816181528147
:1031B000338124819581822F8377492F4A73842715
:1031C000462F4071A72FA17E4A2B8427452F40729E
:1031D000A32FA4794A2B4827842F82958427482F30
:1031E000469546958427482F46958427869557957A
:1031F00067957795A32FB0E0A654BF4DC22FD0E0BE
:10320000C654DE4DAC918881A82BC92FD0E0C6549E
:10321000DD4D8881A82BB0E0A65ABF4D8C91C82FF8
:10322000C695822F8071432F417E842B492F407297
:103230008427472F44798427462F43778427452FB7
:103240004A734827842F82958427482F46954695B0
:103250008427482F469584278695979527953795F7
:10326000A72FB0E0A654BF4D062F10E006541E4D08
:103270004C91D8018C91482B052F10E006541D4D20
:10328000D8018C91A42FA82BB0E0A65ABF4D8C91E9
:103290008C2B8695462F4071A72FA17E4A2BA22FFB
:1032A000A377B92FBA73AB274A27A52FA072B32FE4
:1032B000B479AB2BA4274A2F42954A27A42FA69571
:1032C000A6954A27A42FA6954A2746955795679510
:1032D0007795A32FB0E0A654BF4DC22FD0E0C654BF
:1032E000DE4DAC914881A42BC92FD0E0C654DD4DF2
:1032F0004881A42BB0E0A65ABF4D4C91842B8695F3
:10330000A72FB0E0A654BF4DC62FD0E0C654DE4D67
:10331000AC914881A42BC52FD0E0C654DD4D488127
:10332000A42BB0E0A65ABF4D4C91842B432F417E75
:10333000A22FA0714A2BA62FA377B52FBA73AB2764
:103340004A27A92FA072B72FB479AB2BA4274A2FF5
:1033500042954A27A42FA695A6954A27A42FA6955D
:103360004A274695979527953795708361835283B1
:10337000338324839583DF91CF911F910F9108951B
:103380009C01AB0180E48093D00086EC8093D50053
:103390008093D40081E08093D000D90161507109FD
:1033A0008D916F3F7607D1F4240F351FE091D50042
:1033B000F0E0E85FFD4FE491E8130BC0E091D4002A
:1033C000F0E0E85FFD4FE49181E0D90111969C9116
:1033D0009E1380E01092D00081700895E82FF0E0F5
:1033E000E85FFD4FE491E093D300D8CFDC0180E4A7
:1033F0008093D00086EC8093D5008093D40081E048
:103400008093D0006A0F7B1FA617B70791F4E09155
:10341000D500F0E0E85FFD4FE491EC93E091D4003B
:10342000F0E0E85FFD4FE4911196EC931092D0002C
:103430000895ED91F0E0E85FFD4FE491E093D30053
:10344000E3CF8093F42608952091F426FC01208395
:1034500008958093F2269093F32608952091F22602
:103460003091F326FC01208331830895089581E093
:103470008093F126089581E08093F12682E490E024
:103480008093F2269093F32688E18093F42610929D
:10349000F0261092CA26089581E08093F12684E4F4
:1034A00090E08093F2269093F32688E08093F426B0
:1034B0001092F0261092CA26089581E08093F1269A
:1034C00084E090E08093F2269093F32689E0809345
:1034D000F4261092F02608958093B926089520913D
:1034E000B926FC01208308958093B7269093B826CF
:1034F00008952091B7263091B826FC0120833183AE
:103500000895982F80919126882359F080919C26C8
:10351000811108C081E020918F26921718F080E079
:10352000089581E00895089510929C2681E080938B
:10353000B626089581E08093B626089581E08093B1
:10354000B6261092B52610929C261092932684E4FB
:1035500090E08093B7269093B82684E08093B926B4
:1035600008951092912680E180938E268FEF8093AC
:103570008F2610929026E2CFE0E0FAE010821782C8
:10358000E0E8F1E012821286E0E8F3E08CE3828367
:1035900088E08083A0E2B6E01B961C921B971996E8
:1035A0001C921997E0E0F9E010821382178280E8FC
:1035B000848781E016968C930895CF93DF93A0E4DF
:1035C000B6E052961C92529784E012968C93129712
:1035D000C0E8D1E082E68E83E0E2F6E081E0868317
:1035E000818396E09283818B92E0928B1286138680
:1035F0002FE0218729E528832AE5298320E41196F5
:103600002C93119716962C931697C0EBD0E03A8125
:10361000307F3A833A8132603A8330E311963C93AB
:10362000119716963C93169750962C935097169692
:103630008C93169715969C93159723E011962C93CF
:10364000A0E0B8E023E111962C93119741E050E0FF
:1036500096964D935C93979798964D935C93999714
:10366000A0E8B8E01C961C921C972C93A0E2B3E053
:1036700013961C92139711961C92119728E012969C
:103680002C93129731E13C93C0910026D0910126F2
:103690004A855B8558964D935C935997A0E8B3E0B3
:1036A0003CE312963C9312972C9313963C931397FA
:1036B00011962C932FE93BE120931F3D3093203D41
:1036C00024EC3BE12093C2243093C3248583ACE8EF
:1036D000B6E21C9211961C922CE021872DE539E26E
:1036E00028B939B92DED39E22AB93BB910B814B867
:1036F00013B816B817B811B8A0E0B9E090961D92AB
:103700001C9291972FEF30E096962D933C939797CC
:103710002FEF3FEF9E962D933C939F978C9388E8D5
:1037200013968C93139780E81C968C931C9780ECCF
:1037300017968C9394879387DF91CF9108951F926A
:103740001FB61F9211248F9388B78F9318BE8BB723
:103750008F931BBEEF93FF93E0E8F3E080818F7CB3
:103760008083E0E0FAE08AE8838381E0808383E07D
:1037700081B9FF91EF918F918BBF8F9188BF8F910E
:103780001F901FBE1F9018951F921FB61F921124E5
:103790008F9388B78F9318BE8BB78F931BBE9F9361
:1037A000EF93FF9380916009109260091092610974
:1037B00093E0909340098135C0F5813350F18091B9
:1037C00084269091852680FF6EC0809184269091FA
:1037D00085260297A8F085B18695806885B986B15F
:1037E00097B1019686B997B987709927892B41F4CB
:1037F000ECB1FDB1CF0101968CB99DB985B1808343
:1038000080918426909185260296809384269093B9
:103810008526FF91EF919F918F918BBF8F9188BFEC
:103820008F911F901FBE1F90189581558032F0F127
:10383000809184269091852680FF2FC080918426D8
:10384000909185260297A8F085B18695806885B904
:1038500086B197B1019686B997B987709927892B58
:1038600041F4ECB1FDB1CF0101968CB99DB985B1A0
:10387000808385B1869585B986B197B1019686B961
:1038800097B987709927892B41F4ECB1FDB1CF012D
:1038900001968CB99DB985B18083809184269091E1
:1038A00085260496B2CF85B1869598CF80918426DF
:1038B0009091852680FF1BC080918426909185265B
:1038C0000297A8F085B18695806885B986B197B1D1
:1038D000019686B997B987709927892B41F4ECB185
:1038E000FDB1CF0101968CB99DB985B1808385B1B9
:1038F000869585B986B197B1019686B997B98770D3
:103900009927892B41F4ECB1FDB1CF0101968CB917
:103910009DB985B1808380918426909185260396F8
:1039200074CF1F921FB61F9211248F9388B78F9365
:1039300018BE8BB78F931BBE9F93EF93FF9380911D
:103940006009109260091092610993E09093400918
:103950008135B8F5813348F186B18695806886B99E
:1039600084B195B1019684B995B987709927892B4F
:1039700041F4EAB1FBB1CF0101968AB99BB986B196
:10398000808386B1869586B984B195B1019684B954
:1039900095B987709927892B41F4EAB1FBB1CF0122
:1039A00001968AB99BB986B18083FF91EF919F916F
:1039B0008F918BBF8F9188BF8F911F901FBE1F90DB
:1039C00018958155803268F186B18695806886B9F0
:1039D00084B195B1019684B995B987709927892BDF
:1039E00041F4EAB1FBB1CF0101968AB99BB986B126
:1039F000808386B18695806886B984B195B1019639
:103A000084B995B987709927892B41F4EAB1FBB144
:103A1000CF0101968AB99BB986B1808386B186951C
:103A20009ECF84B195B180FFE4CF86B18695806842
:103A300086B984B195B1019684B995B987709927F3
:103A4000892B09F089CFEAB1FBB1CF0101968AB980
:103A50009BB986B1808380CF1F921FB61F9211241D
:103A60002F9328B72F9318BE2BB72F931BBE3F93CE
:103A70004F935F938F939F93EF93FF931092070A57
:103A80001092000A10924709109240098091810318
:103A90008E7F8093810384B195B180FF16C0379BE0
:103AA0005EC086B1869586B984B195B1019684B918
:103AB00095B987709927892B41F4EAB1FBB1CF0101
:103AC00001968AB99BB986B1808384B195B187701C
:103AD0009927892BC9F086B144B155B1E4B1F5B14C
:103AE00093E0F695E7959A95E1F7E35AF64D90E065
:103AF0004770552728E030E0241B350B02C0959510
:103B000087952A95E2F7808381E080938226109240
:103B100083268FEF9FEF8093260A9093270A1092B7
:103B2000200A1092210A1092060A1092070A109297
:103B3000030A84E08093000A83E080938026FF914B
:103B4000EF919F918F915F914F913F912F912BBF5B
:103B50002F9128BF2F911F901FBE1F90189586B1DF
:103B600086958068A0CF1F921FB61F9211242F93B5
:103B700028B72F9318BE2BB72F931BBE3F938F935D
:103B80009F93EF93FF93E0E0F9E080E4848717824E
:103B9000E0E8F3E082E0878389EB81838DE599E2B9
:103BA0008AB99BB981E090E084B995B916B88EB115
:103BB0009FB12091080430910904822B932B8093AC
:103BC0007E2690937F2681E08093832618B817B8CD
:103BD00010928026FF91EF919F918F913F912F91AD
:103BE0002BBF2F9128BF2F911F901FBE1F9018959C
:103BF000CF93DF93E0E4F6E0128A84E08283C0E8AA
:103C0000D1E082E68E83A0E2B6E081E016968C9346
:103C1000169711968C93119796E012969C93129793
:103C200051968C93519732E052963C9352971A9644
:103C30001C921A971B961C921B979FE019969C93B7
:103C4000199799E598839AE5998390E491839683EF
:103C5000C0EBD0E02A81207F2A832A8122602A8338
:103C600020E321832683908B8683358393E09183A1
:103C7000E0E0F8E093E1918321E030E026A337A370
:103C800020A731A7E0E8F8E014869083E0E2F3E0B3
:103C90001382118298E0928321E12083C091002653
:103CA000D09101262A853B85208F318FE0E8F3E013
:103CB0002CE3228390832383918323EB3DE12093A4
:103CC000D2253093D32521E93CE12093CC253093B4
:103CD000CD252CE23DE12093CE253093CF251596BE
:103CE0008C93E0E0F9E02FEF30E026A337A312A693
:103CF00013A614A615A6108216821782808310922E
:103D0000000A10928026E1E8F6E210821282118207
:103D1000DF91CF910895A0E2B6E01A961C921A970F
:103D2000E7E7F6E210821182E0E0F9E01082138208
:103D3000178280E18487E0E0FAE010821382168225
:103D400081E08487E0E4F8E01082118216968C937B
:103D50008E9808951F921FB61F9211248F9388B7D3
:103D60008F9318BE8BB78F931BBE9F93EF93FF93D8
:103D7000E0E0F9E013828FE790E086AB97AB81E15A
:103D800090E080AF91AFE0E0FAE010A211A28FEFD7
:103D90009FEF86A397A389E88383168281E08487B7
:103DA0008EE0808310922A06FF91EF919F918F9170
:103DB0008BBF8F9188BF8F911F901FBE1F9018954A
:103DC0001F920F920FB60F92112408B60F9218BED1
:103DD0000BB60F921BBE2F933F938F939F93EF933E
:103DE000FF9381B1823098F081B18D3080F4E1B1E0
:103DF000F0E0EE0FFF1FE05DFF4D0190F081E02D40
:103E000019948FE790E08093260A9093270AFF91F8
:103E1000EF919F918F913F912F910F900BBE0F903B
:103E200008BE0F900FBE0F901F9018958E9A8EE0CF
:103E3000809340088FE390E08093260A9093270AAE
:103E400085E081B9E4CF8E9886E081B98FEF82B9A1
:103E500014B815B8E8B1F9B1808180B9D8CF009B0A
:103E600006C08E9A82B1809582B987E0EACF8E989B
:103E7000FCCF009B11C08E9880B1869580B984B12B
:103E800095B1019684B995B984B195B18770992798
:103E9000892B21F488E0D5CF8E9AEECF24B135B1AD
:103EA00086B197B12817390751F58AE0CACFEAB130
:103EB000FBB1309731F08081882329F08E9A89E018
:103EC000C0CF82B1F9CF8E98FACFEAB1FBB130976B
:103ED000D1F080818823A9F08E983196EAB9FBB998
:103EE00024B135B186B197B128173907F1F2E8B19D
:103EF000F9B1CF01019688B999B9818180B986E07D
:103F0000A0CF8E9AEACF82B1882321F08E988FEFCE
:103F100082B9E6CF8E9AFBCF8E988BE092CF8E98A7
:103F20008CE08FCF1092000A1092060A109240087F
:103F30001092410881E08093782669CFA0E2B6E034
:103F400081E015968C9315972DE539E228B939B99A
:103F50002DED39E22AB93BB910B813B812B816B82A
:103F600017B811B8E0E0F9E010A211A22FEF30E08D
:103F700026A337A32FEF3FEF20A731A7808398E830
:103F8000938390E1948793E097831C968C931C977E
:103F900082E01A968C930895CF93DF93E7E7F6E2D9
:103FA0001082118283EB9DE18093D2259093D325DB
:103FB0008AEA9EE18093D0259093D12580EE9EE100
:103FC0008093CA259093CB25E0E4F6E0128A84E042
:103FD0008283C0E8D1E082E68E83A0E2B6E081E091
:103FE00016968C93169711968C93119796E01296CD
:103FF0009C93129751968C93519732E052963C9332
:1040000052971A961C921A971B961C921B979FE028
:1040100019969C9399E598839AE5998390E4918306
:104020009683A0EBB0E012962C911297207F129607
:104030002C93129712962C911297226012962C9321
:1040400020E321832683908B8683358383E08183DD
:10405000E0E0F8E083E1818321E030E026A337A3AC
:1040600020A731A7E0E8F8E014868083E0E2F3E0DF
:104070001382118288E0828391E19083A0910026CF
:10408000B09101261A962D913C91208F318FE0E856
:10409000F3E09CE39283808393838183DF91CF91CC
:1040A0004DCFE0910026F0910126828593854096C0
:1040B0008287938780933803909339038285938511
:1040C00008950F931F93CF93DF93EC018C01085F4A
:1040D0001F4FC017D10729F4DF91CF911F910F9186
:1040E00008950E94A8708993F4CF80915E2A882356
:1040F00011F110925E2A80915D2A8823E1F04091AF
:104100005D2AE091F525F091F625309721F06DE5D7
:1041100079E284E4199563E188E00E941C601092C2
:104120005C2960915D2A70E0E091E225F091E32541
:104130008DE599E2199580915F2A882329F11092E3
:104140005F2A80915B298823E9F040915B29E09107
:10415000F525F091F625309721F06BE578E286E4BD
:10416000199563E188E00E941C6081E080935C29DE
:1041700060915B2970E0E091E225F091E3258BE509
:1041800098E219950C947712089580918C268823D3
:1041900041F110928C2640918A2650918B26E09115
:1041A000F525F091F625309759F0495F5F4F93E080
:1041B000569547959A95E1F76DE579E284E419956E
:1041C00063E188E00E941C6010925C2960918A265D
:1041D00070918B26E091E225F091E3258DE599E23F
:1041E000199580918D26882349F110928D26409152
:1041F000882650918926E091F525F091F625309793
:1042000059F0495F5F4F83E0569547958A95E1F7EE
:104210006BE578E287E4199563E188E00E941C6011
:1042200081E080935C296091882670918926E091D5
:10423000E225F091E3258BE598E2199521B1223032
:1042400009F055C08EB19FB16091080470910904C6
:104250004091862650918726862B972B841B950BA1
:1042600040910220509103204817590708F03FC0A1
:104270001092000A1092070A1092820110928A018D
:104280008CE38093820388E0809380038CE08093AA
:1042900029068DE599E288B999B98DED99E28AB937
:1042A0009BB910B814B813B816B817B811B8109253
:1042B0002009109221098FEF90E0809326099093B6
:1042C00027098FEF9FEF80932E0990932F0981E0AC
:1042D0008093000988E88093030980E880930C09A3
:1042E00080EC8093070920932C0620932B060895D9
:1042F000CF93DF9380917726882309F461C01092D1
:104300007726C6B1D7B1C730D10508F465C0E091B2
:10431000F525F091F625309761F0AE01495F5F4FCA
:1043200093E0569547959A95E1F76DE579E280E43B
:10433000199563E188E00E941C60E091E225F0910C
:10434000E325BE018DE599E21995EC0194FF41C08A
:10435000DF7E8DED99E28AB99BB92097E9F1E09172
:10436000F525F091F625309761F0AE01495F5F4F7A
:1043700083E0569547958A95E1F76DE579E281E40A
:10438000199563E189E00E941C60C6B9D7B98DE533
:1043900099E288B999B910926008109261088FE08B
:1043A00090E0809366089093670888E090E080939F
:1043B0006A0890936B0883E28093410883E081B997
:1043C00080917826882371F010927826DF91CF9122
:1043D000B5CD1AB81BB8C1CF1092000A1092060AC8
:1043E000ADDDEECFDF91CF910895AF92BF92CF9226
:1043F000DF92EF92FF920F931F93CF93DF937C0195
:10440000EB016730710549F1CB0187709927892B42
:1044100021F55B0183E0B694A7948A95E1F7AB019F
:1044200096E0569547959A95E1F76501C40ED51E1D
:10443000CE0CDF1C8501015011090E0D1F1D4F5FB1
:104440005F4F70E060E0C7018A0D9B1D0E941277EC
:104450000E151F0570F4CA0DDB1DCE01DF91CF9143
:104460001F910F91FF90EF90DF90CF90BF90AF9092
:104470000895D801EC91F0E0E85FFC4F4491D6013B
:104480000A171B07B0F0D801AC19BD09C016D10638
:1044900010F4B0E0A0E0AC0DBD1D11968C91119709
:1044A0008E7FE42FE170E82B1196EC9301501109F7
:1044B000CFCF8C91880FFD019291991F9927991F59
:1044C000892B8C93DF01DCCFCF93DF93EC0182EC5F
:1044D000888361E070E0CE010E94F6198AE0809343
:1044E000C5241092D42768E170E0CE01DF91CF910E
:1044F0007CCF81E080935628109255281092542842
:104500001092502887E88093522841E050E06FE0F5
:1045100072E08FE498E20E94D66141E050E060E1F1
:1045200072E08EE498E20E94D66180914E28881F46
:104530008827881F809351280895CF93DF93EC013B
:104540008091F225873089F443E050E070E060E02C
:10455000CE010E94D66144E050E063E070E0CE01FD
:104560000396DF91CF910C94D66144E050E070E067
:1045700060E0CE01F6CF81E08093F12682E090E00A
:104580008093F2269093F32688E18093F42610928C
:10459000F0261092CA26E0910026F091012684852B
:1045A000882381F041E050E065E070E084EF96E21E
:1045B0000E94D66142E050E066E070E082EF96E251
:1045C0000C94D661089581E08093F12684E090E018
:1045D0008093F2269093F32688E08093F42610923D
:1045E000F0261092CA26E0910026F09101268485DB
:1045F000882381F041E050E065E070E084EF96E2CE
:104600000E94D66142E050E066E070E082EF96E200
:104610000C94D6610895CF92DF92EF92FF92CF93E0
:10462000DF93EC016A017B01A90180910020909148
:1046300001209057B0E0A0E0C816D906EA06FB06B4
:1046400070F4B6017059CE010E94D661CD28CE28F3
:10465000CF2819F489818057898381E001C080E0E7
:10466000DF91CF91FF90EF90DF90CF900895CF939F
:10467000DF93EC0143E050E070E060E00E94D6611F
:1046800044E050E064E070E0CE010396DF91CF910A
:104690000C94D661ECCF0F931F93CF93DF930F92BF
:1046A000CDB7DEB700918E260450000F000F82E0D8
:1046B0008093912610E0B8016D5F7F4F41E050E09C
:1046C0008FE896E20E94D661B8016C5F7F4F41E0AF
:1046D00050E0CE0101960E94D6618981881F88270B
:1046E000881F809390260E949E1A0F90DF91CF9191
:1046F0001F910F91089589E280938E26CCCF84E19B
:1047000080938E26C8CFCF93DF93CDB7DEB729979E
:10471000CDBFDEBF81E08093912640E150E060EBA9
:1047200070E08DE996E20E94D6618091A126909179
:10473000A226A091A326B091A426BC01CD010E947F
:1047400044706E837F838887998780919D2690919E
:104750009E26A0919F26B091A026BC01CD010E946B
:1047600044706093A1267093A2268093A326909311
:10477000A4268E819F81A885B98580939D269093DC
:104780009E26A0939F26B093A0268091A926909163
:10479000AA26A091AB26B091AC26BC01CD010E9407
:1047A00044706E837F83888799878091A526909136
:1047B000A626A091A726B091A826BC01CD010E94F3
:1047C00044706093A9267093AA268093AB26909399
:1047D000AC268E819F81A885B9858093A52690936C
:1047E000A626A093A726B093A82680E380938E26C2
:1047F00041E050E068EA70E08FE896E20E94D661FE
:1048000041E050E06CEA70E0CE0101960E94D66172
:1048100081E09981911180E08093902681E08093DE
:10482000B6261092B52610929C26109293262996B1
:10483000CDBFDEBFDF91CF910895282FCB013091FE
:10484000F325311108C034E0239FB001112444E066
:1048500050E00E94A56580E00895AF92BF92CF928C
:10486000DF92EF92FF920F931F93CF93DF9300D0CD
:104870000F92CDB7DEB78C019B01FC018081909136
:104880005628933009F4C5C020F5923041F1292F04
:104890002095217020935528992311F0863211F02C
:1048A0008235D1F484E4F8018083118282E0809320
:1048B000562880E190E02496CDBFDEBFDF91CF91F6
:1048C0001F910F91FF90EF90DF90CF90BF90AF902E
:1048D0000895943009F4F3C090E080E0ECCF90911B
:1048E0005528911102C0863211F0823549F484E4D2
:1048F000F8018083118281E0982790935628ECCFAD
:10490000833909F019C188E890E089839A831B8272
:104910001C8243E050E070E060E0CE0102960E940D
:10492000D661F8018181803209F446C0803709F4EC
:1049300053C0282F22952F705EEFC52EC20E8F70A8
:10494000D82E88E090E08D1991094FEF50E07A0160
:1049500002C0F594E7948A95E2F7273029F0F4E055
:10496000CF128CC0DD20E1F044E050E0B8016E5F72
:104970007F4FCE0101960E94EB76892B61F48981ED
:104980009A8189279B8189279C818927F8019681B3
:1049900089278E2189F0F4E0CF1270C0D1109CCF0E
:1049A00044E050E0B8016E5F7F4FCE0101960E9457
:1049B000EB76892B09F090CF8981F80180833A81C9
:1049C00031832B8122839C819383832782278927AC
:1049D000848388E290E06FCF9281898198137CCFA5
:1049E00093818A81981378CF94818B81981374CFA7
:1049F00095818C81981370CF84E0808361E070E0B2
:104A0000C8010E94F61983E08093562888E190E05F
:104A100052CF90915528911103C0863209F467CF87
:104A2000823509F464CF853909F086C044E050E04E
:104A300064E070E0CE0101960E94D661F8018181A8
:104A4000803209F4B9CF803709F073CF9281898120
:104A5000981342CF93818A8198133ECF94818B81A2
:104A600098133ACF95818C81981336CF108261E0EC
:104A700070E0C8010E94F61984E0C6CF83E08C156F
:104A800008F42ACFD12CA601B8016E5F7F4FCE016A
:104A900001960E94EB76892B09F01ECFD801AC0D50
:104AA000BD1DE1E0F0E0EC0FFD1FEC0DFD1D1296C9
:104AB0008C9190818927E82209F00ECF7DCF9091CB
:104AC0005528911103C0863209F411CF823509F4BB
:104AD0000ECF295F3F4FB90143E0769567954A9520
:104AE000E1F72831310540F162507109C8010E9497
:104AF000C019811104C081E0F801808365C0F8010C
:104B0000808190915428992351F010925428B80133
:104B10006E5F7F4F8091532890DE8AE0EDCF803525
:104B200009F402C1F0F48A3309F46CC048F48B3103
:104B300009F4A1C0803391F181E080935628CCCE56
:104B40008C33D1F740E250E06AEC70E0C8010E947B
:104B5000127760E270E0C8010E94F61980E191E0EE
:104B6000AACE803A09F4C8C0823A09F4AFC08036B0
:104B700019F7108284E08183828382E0838381E05D
:104B80008483158281E1868383E0878368E070E017
:104B9000C8010E94F61980E590E08DCEF180E0908A
:104BA000522880915128882331F08091502881111A
:104BB00002C0E0904F2868015801F0E1AF0EB11C2F
:104BC000FE1428F0F801108284E090E074CE84E0B6
:104BD000F89EB001112444E050E0C6010E94D66165
:104BE000F394EF1001C0F12CE4E0CE0ED11CCA14F6
:104BF000DB0469F760E170E0C8010E94F61980E902
:104C000090E059CE6181E280E616E0F28091522870
:104C10006817C0F6E816B0F680915128882361F035
:104C200080915028811108C080914F28681710F496
:104C3000E81610F084E060CFF12C70E0E61AF70A75
:104C4000FFEFEF1AFF0AEE0CFF1CEE0CFF1C660FC5
:104C5000771F660F771FA701C8010E94D661B701B1
:104C6000C8010E94F619C701029623E0880F991F18
:104C70002A95E1F720CE44E050E064E172E0CE01F5
:104C800001960E94D6619981F80181819813D2CF53
:104C90009A8182819813CECF9B8183819813CACF4A
:104CA0009C8184819813C6CF81E08093502842E094
:104CB00050E068E172E0C8010E94D66162E070E0F5
:104CC000C8010E94F61980E290E0F5CD8181823022
:104CD00008F478CF90915228891708F073CF9091FB
:104CE0005028911105C090914F28891708F0A2CF44
:104CF000B8016E5F7F4F10CF8181823008F462CFA0
:104D000090915228891708F05DCF90915028911109
:104D100005C090914F28891708F08CCF80935328B5
:104D200081E080935428F9CE818181114BCF10927C
:104D30005628D2CDCF93DF930F92CDB7DEB7FC01CB
:104D40008091F225873059F447E050E070E060E050
:104D5000CF010E94A5650F90DF91CF9108958081CA
:104D6000918189279281892793818927898344E0CA
:104D700050E070E060E0CF010E94A56541E050E0A6
:104D800064E070E0CE010196E4CFCF92DF92EF9223
:104D9000FF920F931F93CF93DF9300D00F92CDB765
:104DA000DEB7282F7B018091CA26882321F18EB19E
:104DB0009FB1A0910804B091090460910020709106
:104DC0000120042F10E0680134E0C30ED11CE8EF8D
:104DD000FFE7E61BF70BCE16DF06C8F081E08093F5
:104DE000010693E0909381068093060692E09093EB
:104DF0008606809386062496CDBFDEBFDF91CF91D5
:104E00001F910F91FF90EF90DF90CF90089529832D
:104E10004A838A2B9B2B9827892798278B839C83EF
:104E200044E050E0CE0101960E94A565609100200B
:104E3000709101206C5F7F4F609300207093012080
:104E4000A801C7010E94A5658091002090910120D2
:104E5000080F191F009300201093012042E050E03A
:104E600060E070E780E090E20E94A565C4CF81E039
:104E70008093F12682E090E08093F2269093F326CF
:104E800088E18093F4261092F02640E070E060E024
:104E90008FEF7BDFE0910026F09101268485882347
:104EA00081F041E050E065E070E084EF96E20E941E
:104EB000D66142E050E066E070E082EF96E20C944A
:104EC000D661089581E08093F12624E030E02093BC
:104ED000F2263093F32698E09093F4261092F02671
:104EE0008093CA2640E070E060E08FEF4EDFE091F3
:104EF0000026F09101268485882381F041E050E06E
:104F000065E070E084EF96E20E94D66142E050E0F6
:104F100066E070E082EF96E20C94D66108950F93FC
:104F20001F93CF93DF930F920F92CDB7DEB78C0113
:104F3000FC018081928189279181892798E88927BE
:104F400089838381948189279581892796818927FF
:104F50008A8343E050E070E060E0C8010E94A565EC
:104F600041E050E063E070E0CE0101960E94A5654B
:104F700044E050E064E070E0C80103960E94A5653B
:104F800041E050E068E070E0CE0102960E94A56525
:104F90000F900F90DF91CF911F910F910895BFCF88
:104FA0000F931F93CF93DF930F920F92CDB7DEB77E
:104FB0008C0142E050E069E270E0CE0101960E946F
:104FC000D66129813A81F801808121153105C9F422
:104FD000218130E0322F2227820F932F911D898368
:104FE0009A8342E050E069E270E0CE0101960E94AF
:104FF000A56581E00F900F90DF91CF911F910F91E8
:1050000008958F70808390E0A901409550954817CE
:10501000590718F0820F931FE2CF80E0EBCFFF9289
:105020000F931F93CF93DF93CDB7DEB72A97CDBFF2
:10503000DEBF8C012091C925213079F420914D28C3
:10504000243009F401C1A0F4223009F480C02330D7
:1050500009F4B6C0213009F468C090E080E02A96D7
:10506000CDBFDEBFDF91CF911F910F91FF900895CB
:10507000253009F4B9C0263081F7F0905C29E1E0D1
:10508000FE12FBC06B31710509F0F7C06BE170E0F7
:10509000C8010E948F13882309F4EFC0F8018081B2
:1050A00082FD82C0F0924D2880E180930506E09158
:1050B0000420F0910520E058F10994E0F695E79579
:1050C0009A95E1F7EB52F84D80818F5F808370E015
:1050D00060E085E60E94835E809105208F93809139
:1050E00004208F9387EE93E29F938F931F928AE021
:1050F0008F938E010F5F1F4F1F930F930E942B778B
:10510000C8010E94FC5CE0910026F09101266285B6
:105110007385CF0180509040855F95420E947A77D9
:105120000E945213CDBFDEBF98CF80E18093060668
:1051300080915C29811191CFF8018081863219F02C
:10514000823509F08ACF82E080934D2886CF209166
:105150005C29213059F562317105A9F081E0809315
:105160004D2880E180930606E0910420F09105200F
:10517000E11528E0F20708F456C070E060E088E727
:105180000E94835E6ACFF801808185FDE7CF81812F
:10519000807E21F7828180FDE1CF62E170E0C8016D
:1051A0000E948F138823D1F283E0CECF2111D6CF76
:1051B000F8018081863209F450CF823579F64DCFDF
:1051C00020915C292111CACF6031710539F6F801AF
:1051D0008081982F907F903909F0C0CF89708130FD
:1051E00009F0BCCF85E0B0CF20915C29213061F47B
:1051F0006D32710549F46DE270E0C8010E948F13B1
:10520000882311F084E0A0CF81E080934D2880E1D5
:1052100080930606E0910420F0910520E11588E0D6
:10522000F80708F0AACFE058F10984E0F695E79571
:105230008A95E1F7EB52F84D10820E94512080933D
:1052400004209093052009CF20915C29211186CF5D
:105250006834710509F082CFF8018081982F907F22
:10526000903909F07BCF8970813009F077CF818147
:10527000803709F073CF86E067CF81E080934D28B7
:1052800080E180930606E0910420F0910520E1156D
:1052900098E0F90708F071CFC6CF4F925F926F92F6
:1052A0007F928F929F92AF92BF92CF92DF92EF92B6
:1052B000FF920F931F93CF93DF93CDB7DEB7629723
:1052C000CDBFDEBF7C018B018091F1266730710577
:1052D000C9F5D7019C91882311F0963211F09235CF
:1052E00089F521E0811120E02093F026882311F434
:1052F0000C94CF39963211F0923521F58091F22637
:105300009091F326F701808391838FEF8093EF26AE
:1053100084E08093F12600E110E0C8016296CDBFE1
:10532000DEBFDF91CF911F910F91FF90EF90DF9043
:10533000CF90BF90AF909F908F907F906F905F9035
:105340004F900895863009F430C340F5833009F456
:1053500026C150F4823010F40C94D339823009F411
:10536000BDC010E000E0D9CFD7012C919091F0267C
:10537000843009F098C2911102C0263219F022350A
:1053800009F02EC12091F2263091F326F7012083F7
:10539000318381E098279093F126E3CF893011F48F
:1053A0000C94293968F5873009F44EC78830C9F65E
:1053B000D7018C91803511F00C94DD3311968C91CE
:1053C000119781110C94DD3312968C9112978735C9
:1053D00011F00C94DD3313968C918D3C11F00C94EC
:1053E000DD331092F126E091F525F091F625309706
:1053F00009F4B7CF40E070E060E081E91995B1CFE2
:105400008A50833008F0ADCF66E0C7010E94F216E3
:1054100064E070E0C7010E94C019882311F40C9465
:10542000C1396091EE26B0E16B9FB001112440E1DB
:1054300050E08AEB96E20E94D6619091BA26809164
:10544000BE268095981337C08091C226981333C02A
:105450009091BB268091BF26809598132CC0809197
:10546000C326981328C09091BC268091C0268095B1
:10547000981321C08091C42698131DC09091BD2619
:105480008091C1268095981316C08091C5269813E7
:1054900012C09091C6268091C726809598130BC0A4
:1054A0008091C826981307C08091C92680959817C7
:1054B00011F40C9463390E94CF1896E00C94503983
:1054C000903409F04ECF8091C424882309F449CF49
:1054D00082E08093F1268AE0F7013AC0D7018C91EF
:1054E000982F9D7F913419F48AE08C9352C08033B9
:1054F000E1F462E070E0C7010E94C019882311F452
:105500000C942539F7016181F0E16F9FB0011124FE
:1055100040E150E0C7010E94D66160E170E0C70140
:105520000E94F61900E910E0F8CE803A99F462E0A2
:1055300070E0C7010E94C019882311F40C9425392A
:10554000F70181818093EE2683E08093F1268AE043
:1055500080831FC0803501F511968C91811117C091
:1055600062E070E0C7010E94C019882311F40C9416
:105570002539E091F525F091F625309729F040E0A6
:1055800070E060E081E919951092F126EACEF7010A
:10559000108204E010E0C1CE84E00C94263960E172
:1055A00070E0C7010E94C0198823B1F08091F325F3
:1055B00081110BC06091EE26B0E16B9FB001112408
:1055C00040E150E0C7010E94A5658AE0F7018083B1
:1055D00082E08093F126DDCF81E0D7018C93F8CF74
:1055E000233991F68091F225873009F0BBC043E062
:1055F00050E070E060E0CE0102960E94D66128E89B
:105600002983D70111969C911197903209F45BC0C0
:10561000903709F467C0292F22952F706EEFC62EA0
:10562000C20E9F70D92E88E090E08D1991090FEF7E
:1056300010E002C0159507958A95E2F7273029F00A
:10564000F4E0CF126EC0DD20E9F044E050E0B70195
:105650006E5F7F4FCE0101960E94EB76892B69F435
:105660008A819B818927D70116969C9189279C81E5
:10567000892798E88927802389F0B4E0CB1251C0AC
:10568000D1106FCE44E050E0B7016E5F7F4FCE0186
:1056900001960E94EB76892B09F063CE98E8D7013A
:1056A0009C938A8111968C9311972B8112962C933F
:1056B00012973C8113963C9313978327822789275F
:1056C00014968C930CC0F70120838A8181839B817F
:1056D00092833C813383832789278227848308E24E
:1056E00010E01BCE12968C91883809F03ACEF70163
:1056F00093818A81981335CE94818B81981331CE12
:1057000095818C8198132DCE84E0808361E070E0D8
:10571000C7010E94F61985E08093F12608E110E0A8
:10572000FCCDE3E0EC1508F41CCED12CA601B701AA
:105730006E5F7F4FCE0101960E94EB76892B09F0B8
:1057400010CED701AC0DBD1DE1E0F0E0EC0FFD1F68
:10575000EC0DFD1D12968C9190818927082309F08C
:1057600000CE9CCF44E050E070E060E0CE010196B6
:105770000E94D661F7018181803209F446C08037EA
:1057800009F453C0282F22952F705EEFC52EC20E4C
:105790008F70D82E88E090E08D1991090FEF10E0FE
:1057A00002C0159507958A95E2F7273029F0F4E0B5
:1057B000CF1258C0DD20E9F044E050E0B7016E5F41
:1057C0007F4FCE0101960E94EB76892B69F4898187
:1057D0009A8189279B8189279C818927D7011696E1
:1057E0009C918927802389F0B4E0CB123BC0D11073
:1057F000B8CD44E050E0B7016E5F7F4FCE01019617
:105800000E94EB76892B09F0ACCD8981D7018C936E
:105810003A8111963C9311972B8112962C931297F3
:105820009C8113969C93139748CF928189819813FA
:1058300098CD93818A81981394CD94818B8198130C
:1058400090CD95818C8198138CCD8091F4268083A6
:1058500061E070E0C7010E94F6198FEF8093EF2698
:1058600086E05ACFE3E0EC1508F47BCDD12CA601FD
:10587000B7016E5F7F4FCE0101960E94EB76892BB8
:1058800009F06FCDD701AC0DBD1DE1E0F0E0EC0FEC
:10589000FD1FEC0DFD1D12968C9190818927082328
:1058A00009F05FCDB2CF911103C0263209F46ACD61
:1058B000223509F467CD253909F066CE44E050E081
:1058C00063E070E0CE0101960E94D661D701119687
:1058D0008C911197803209F43FC0803709F449C098
:1058E000282F22952F704EEFC42EC20E8F70D82E07
:1058F00088E090E08D1991090FEF10E002C0159536
:1059000007958A95E2F7273031F0B4E0CB121FC03B
:10591000DD2009F46ECF44E050E0B7016E5F7F4FA9
:10592000CE0101960E94EB76892B69F489819A81D8
:1059300089279B8189279C818927F701968189275F
:10594000802309F462CFF4E0CF1609F450CF73E05E
:105950007C1508F08BCF05CD8981F70180833A81D2
:1059600031832B8122839C819383832782278927FC
:10597000B5CE12969C91129789819813F2CC13960A
:105980009C9113978A819813ECCC14969C91149750
:105990008B819813E6CC15969C9115978C81981362
:1059A000E0CC8091F4268C9353CF9091F026F701B0
:1059B0008081911102C0863211F0823541F420912C
:1059C000F2263091F326D7012D933C93E2CC80341C
:1059D00031F59091C42491117BCD0032110509F06D
:1059E000ECC3982F9F77903339F0803A29F090E4F8
:1059F000980F933008F092C381E08093F12684E001
:105A0000F7018083E091F525F091F625309709F4B0
:105A1000C0CD40E070E060E082EC1995BACD8035F1
:105A200019F4F70181819ACD0032110509F0C5C33F
:105A300090EA980F9230A8F662E070E0C7010E94E9
:105A4000C019882311F40C942539D7018C913AE3BD
:105A5000A32EB12C803619F420E3A22EB12CF7012D
:105A60009180692D97FE51C3607FF0E16F9F6001C7
:105A7000112470ECA70EB11C96EF692E712CE091E9
:105A8000F525F091F625309721F042E0B70180E945
:105A90001995D7018C9181708093ED26C601B4E0F1
:105AA00096958795BA95E1F78093EE26B3016C0D34
:105AB0007D1D44E050E089EE96E20E94D66180911F
:105AC000EE268093EF26CE0101960E946120809100
:105AD000F22544E050E063E070E0873011F070E0C0
